{"abi":[{"type":"constructor","inputs":[],"stateMutability":"nonpayable"},{"type":"function","name":"commitMove","inputs":[{"name":"_commitment","type":"bytes32","internalType":"bytes32"}],"outputs":[],"stateMutability":"nonpayable"},{"type":"function","name":"determineWinner","inputs":[],"outputs":[{"name":"winner","type":"address","internalType":"address"}],"stateMutability":"view"},{"type":"function","name":"gameMoves","inputs":[{"name":"","type":"address","internalType":"address"}],"outputs":[{"name":"commitment","type":"bytes32","internalType":"bytes32"},{"name":"revealedMove","type":"uint8","internalType":"enum RockPaperScissors.MoveOption"}],"stateMutability":"view"},{"type":"function","name":"playerAddresses","inputs":[{"name":"","type":"uint256","internalType":"uint256"}],"outputs":[{"name":"","type":"address","internalType":"address"}],"stateMutability":"view"},{"type":"function","name":"revealMove","inputs":[{"name":"_move","type":"uint8","internalType":"enum RockPaperScissors.MoveOption"},{"name":"_secret","type":"bytes32","internalType":"bytes32"}],"outputs":[],"stateMutability":"nonpayable"}],"bytecode":{"object":"0x60806040526002805460ff19169055348015601957600080fd5b5061081c806100296000396000f3fe608060405234801561001057600080fd5b50600436106100575760003560e01c80630d991ad61461005c57806315c6aee21461009d57806333b16d93146100c8578063a8f7d442146100d0578063a9ea37b6146100e5575b600080fd5b61008661006a3660046106ae565b6003602052600090815260409020805460019091015460ff1682565b6040516100949291906106f4565b60405180910390f35b6100b06100ab366004610726565b6100f8565b6040516001600160a01b039091168152602001610094565b6100b0610118565b6100e36100de36600461073f565b6103a9565b005b6100e36100f3366004610726565b610543565b6000816002811061010857600080fd5b01546001600160a01b0316905081565b6002805460009160ff909116146101895760405162461bcd60e51b815260206004820152602a60248201527f426f746820706c6179657273206d75737420636f6d6d6974207468656972206d6044820152691bdd995cc8199a5c9cdd60b21b60648201526084015b60405180910390fd5b600080546001600160a01b0390811680835260036020819052604080852060019081015481549095168087529186200154929460ff9485169491939091169184908111156101d9576101d96106de565b141580156101f9575060008160038111156101f6576101f66106de565b14155b61025a5760405162461bcd60e51b815260206004820152602c60248201527f426f746820506c6179657273206d7573742072657665616c207468656972206d60448201526b6f766573206669727374202160a01b6064820152608401610180565b80600381111561026c5761026c6106de565b83600381111561027e5761027e6106de565b0361028e57600094505050505090565b60038360038111156102a2576102a26106de565b036102ea5760028160038111156102bb576102bb6106de565b036102c95750919392505050565b60018160038111156102dd576102dd6106de565b036102ea57509392505050565b60028360038111156102fe576102fe6106de565b03610346576003816003811115610317576103176106de565b0361032457509392505050565b6001816003811115610338576103386106de565b036103465750919392505050565b600183600381111561035a5761035a6106de565b036103a2576003816003811115610373576103736106de565b036103815750919392505050565b6002816003811115610395576103956106de565b036103a257509392505050565b5050505090565b336000908152600360205260409020546104055760405162461bcd60e51b815260206004820152601c60248201527f4e6f20636f6d6d6974746564206d6f766520746f2072657665616c2e000000006044820152606401610180565b6002805460ff16146104785760405162461bcd60e51b815260206004820152603660248201527f426f746820706c6179657273206d75737420636f6d6d6974207468656972206d60448201527537bb32b9903132b337b932903932bb32b0b634b7339760511b6064820152608401610180565b6000828260405160200161048d929190610785565b60408051601f198184030181529181528151602092830120336000908152600390935291205490915081146105045760405162461bcd60e51b815260206004820152601d60248201527f57726f6e67206d6f7665206f722077726f6e6720706173776f726420210000006044820152606401610180565b336000908152600360208190526040909120600190810180548693919260ff19909116918490811115610539576105396106de565b0217905550505050565b6002805460ff161061058e5760405162461bcd60e51b81526020600482015260146024820152732a37b79036b0b73c9033b0b6b29036b7bb32b99760611b6044820152606401610180565b33600090815260036020526040902054156105eb5760405162461bcd60e51b815260206004820152601d60248201527f596f752063616e206f6e6c79207375626d6974206f6e65206d6f76652e0000006044820152606401610180565b6040805180820190915281815260208101600090523360009081526003602081815260409092208351815591830151600180840180549293909260ff19169190849081111561063c5761063c6106de565b0217905550506002805433925060009160ff9091169081106106605761066061076f565b0180546001600160a01b0319166001600160a01b03929092169190911790556002805460ff16906000610692836107b9565b91906101000a81548160ff021916908360ff1602179055505050565b6000602082840312156106c057600080fd5b81356001600160a01b03811681146106d757600080fd5b9392505050565b634e487b7160e01b600052602160045260246000fd5b828152604081016004831061071957634e487b7160e01b600052602160045260246000fd5b8260208301529392505050565b60006020828403121561073857600080fd5b5035919050565b6000806040838503121561075257600080fd5b82356004811061076157600080fd5b946020939093013593505050565b634e487b7160e01b600052603260045260246000fd5b6000600484106107a557634e487b7160e01b600052602160045260246000fd5b5060f89290921b8252600182015260210190565b600060ff821660ff81036107dd57634e487b7160e01b600052601160045260246000fd5b6001019291505056fea2646970667358221220ee0bb2c1e2a03c2b11982419490864706ed1d94ab03e0b5bee64e47bae8d9a1364736f6c634300081c0033","linkReferences":{}},"methodIdentifiers":{"commitMove(bytes32)":"a9ea37b6","determineWinner()":"33b16d93","gameMoves(address)":"0d991ad6","playerAddresses(uint256)":"15c6aee2","revealMove(uint8,bytes32)":"a8f7d442"},"id":23}